:020000000329D2
:0E000600213083120313FD00FD0B07280800B4
:100014000F3083120313FC004730FD00FD0B102842
:0A002400FC0B10280000000008008B
:06002E00000000000800C4
:1000340083120313C11B2028871121288715411B14
:100044002528071126280715C11A2A2887102B28C6
:100054008714411A2F280710302807143B18342816
:10006400071635280712871617208712C1193C284E
:1000740087113D2887154119412807114228071582
:10008400C118462887104728871441184B280710A1
:100094004C2807143B1850280716512807128716B6
:1000A400172087123B1C58280A20592803200800CF
:0E00B400831203133A088A00390882000800FC
:1000C200831203133B104008C1001A203B1408009E
:1000D200831603138712071207108710071187115F
:1000E20083128712071287110711871007100A203F
:1000F2000A200A20871407148716172087120A205D
:100102008716172087120A208716172087120A20BF
:1001120007108716172087120A20871617208712C2
:10012200871087158716172087120A208711071450
:1001320087161720871207108716172087120A20A2
:1001420087161720871207148716172087120A208E
:1001520007108716172087128715071587140714AB
:0C0162008716172087120A203B140800A3
:10016E00C928803083120313BC00DC28C030BC00C9
:10017E00DC289430BC00DC28D430BC00DC28803075
:10018E00BC00DC28831203133C08013A0319B8287B
:10019E003C08023A0319BD283C08033A0319C0284B
:1001AE003C08043A0319C328C6283D03F0003C0856
:1001BE00F0077008BC007008C1001A203B10BF0188
:1001CE003F083E07840000080319F5283F083E0744
:1001DE0084000008C0006120BF0AE7283B14080015
:1001EE005A208A110A128000840AB90A0319BA0A1F
:0801FE00F003031DF7280800BF
:10020600423083120313A0006930A1006530A200BA
:100216006E30A3007630A4006530A5006E30A600CF
:100226007530A7006530A800A9015330AA006130D7
:10023600AB006930AC007330AD006930AE0072308F
:10024600AF002030B0006C30B1006530B200203015
:10025600B3004330B4006F30B5006430B60065308B
:10026600B700B80169200130C1001A200C30C10066
:100276001A200130BC000430BD002030BE00B7207B
:100286000230BC000230BD002A30BE00B7204A2929
:02400E004A2F37
:00000001FF
