:02000000A22933
:10000800FF00030E8301E6000A08E7008A01700872
:10001800A3007B08A2007C08A1007D08A000851031
:100028008B102B28FD0B1628FC0B1628FB0B16280B
:100038000000000009102B28FD0B2028FC0B2028AD
:10004800FB0B202800000000091185140B10230861
:10005800F0002208FB002108FC002008FD006708CA
:0C0068008A00660E8300FF0E7F0E090068
:060074000000000008007E
:10007A000F3083120313FC004730FD00FD0B4328A9
:0A008A00FC0B4328000000000800F2
:0E009400213083120313FD00FD0B4E280800DF
:1000A20083120313EE1B57288711582887156E1BDE
:1000B2005C2807115D280715EE1A6128871062284F
:1000C20087146E1A66280710672807145B186B28B6
:1000D20007166C28071287163A208712EE19732822
:1000E2008711742887156E19782807117928071542
:1000F200EE187D2887107E2887146E188228071034
:10010200832807145B188728071688280712871682
:100112003A2087125B1C8F283D2090284A20080035
:10012200063083120313FD00FD0B95280000080022
:1001320083120313EE018316A001A1011030A20065
:10014200043021020318D228F03083128800803054
:10015200F0007008083E840083162209F00070083F
:1001620080003A203A200F3083120805F000700810
:10017200EF0070080319CB28831620088312EE00C3
:100182006F080319C828EF0CEF13EE0AC1280430D8
:100192008316A1008316A20D22100430A007A10A23
:0A01A200A12883126E08F000080087
:0E01AC00831203135A088A00590882000800C3
:1001BA00831203135B106D08EE0051205B140800D4
:1001CA0099207008ED000F300805F0000319EF2898
:0A01DA009120E8286D08F0000800ED
:1001E400803083120313F0007008083E8400FF304F
:0401F400800008007F
:1001F8000E29803083120313E9002129C030E90059
:1002080021299430E9002129D430E90021298030BE
:10021800E9002129831203136908013A0319FD280B
:100228006908023A031902296908033A03190529DA
:100238006908043A031908290B296A03F0006908B8
:10024800F0077008E9007008EE0051205B10EC011F
:100258006C086B078400000803193A296C086B07BF
:1002680084000008ED00DD20EC0A2C295B1408004E
:1002780083160313871207120710871007118711B7
:1002880083128712071287110711871007103D2064
:100298003D203D208714071487163A2087123D20F9
:1002A80087163A2087123D2087163A2087123D206C
:1002B800071087163A2087123D2087163A208712A2
:1002C8008710871587163A2087123D208711071453
:1002D80087163A208712071087163A2087123D2082
:1002E80087163A208712071487163A2087123D206E
:1002F800071087163A2087128715071587140714E1
:0C03080087163A2087123D205B14080085
:1003140083120313E901E5207008E900700803194A
:080324008D296908F0000800B2
:10032C00D6208A110A128000840AD90A0319DA0A23
:08033C00F003031D96290800DF
:100344002E22F030831603138800C1308600073054
:100354008900831286018B170B16831601138B15E4
:100364003C210130EE0051200C30EE0051200130D0
:10037400E9000430EA002430EB00FC200230E900FC
:100384000230EA004A30EB00FC20F220E52006307F
:10039400FB001330FC00AD30FD00FD0BCF29FC0B3E
:1003A400CF29FB0BCF2900000000E401E5018030D8
:1003B4006506F00080307002031DE22903306402F8
:1003C4000318F3298A217008E80070080319EF293B
:1003D40064085C3E840068088000E40A0319E50AA6
:0403E400D929F329F7
:10045C0024308400353083120313F000F930D900B6
:08046C000130DA0096210800BE
:1003F2004234693465346E34763465346E3475341F
:040402006534003429
:10040600413463346334E934733420345234E93488
:0A041600663475347334E9340034A1
:10042000413463346334E9347334203461347534D3
:0E04300074346F34723469347334E934003438
:10043E0053346134693473346934723420346C3417
:0E044E006534203443346F3464346534003434
:02400E004A2F37
:00000001FF
