:020000040000FA
:100000002D2BFF3FFF3F213083120313FD00FD0B1B
:10001000072808000F3083120313FC004730FD004F
:10002000FD0B1028FC0B1028000000000800000049
:100030000000080083120313F801F9011030FC00DE
:10004000710DF80DF90D7408F8027508031C750F91
:10005000F902031832287408F80775080318750F99
:10006000F9070310F00DF10DFC0B20280800831296
:100070000313EA1B3D2887113E2887156A1B422877
:10008000071143280715EA1A4728871048288714BC
:100090006A1A4C2807104D2807145B1851280716B8
:1000A00052280712871617208712EA195928871134
:1000B0005A2887156A195E2807115F280715EA185C
:1000C00063288710642887146A186828071069282D
:1000D00007145B186D2807166E280712871617205D
:1000E00087125B1C75280A20762803200800F2017D
:1000F000F101F001F801F30100300800FA1FF213DA
:10010000003008007B15FB1F8C280130F300F20142
:10011000F101F001FA0DF20CFF3008008312031315
:100120005B106508EA0037205B1408008312031394
:1001300042088A004108820008000E30831203132F
:10014000FD00FD0BA1280000080083120313E80145
:10015000053068020318B328680867078400203058
:100160008000E80AA8286808670784008001E8037F
:1001700068086707E9000A30F400F5016508F00037
:100180006608F1001A207808F0007908F100303094
:10019000F00769088400700880000A30F400F50157
:1001A0006508F0006608F1001A207008E500710883
:1001B000E60000307106031DDF2800307006031DC5
:1001C000E228E428E803B8280800A0017208031D0B
:1001D000FA287108F2007008F100F001A015720809
:1001E000031DFA287108F200F101A011201672080F
:1001F000031908292008F302031D031C0C2903100E
:10020000F21B1029F00DF10DF20DF30B00290C2952
:100210000130FC00772013290230FC0082201329D2
:100220000430FC007E200800FB14FB1F1E29FF3059
:10023000F300F200F100F000FA0DF20CFF300800BC
:100240007B14FB1F2B29F201FA1FFF30F200F10093
:10025000F000FA0DF20CFF30080083120313FB01CB
:100260007308031D77080319842972087606FA00BB
:100270007708F3077E30031C4129F302031887290E
:100280004429F302031C8A297208F8007108FC0053
:100290007008FD00F817F6170310F201F101F001E4
:1002A0001830A0007D1C5E297408F007750803183B
:1002B000750FF10776080318760FF207F20CF10CB0
:1002C000F00CF80CFC0CFD0C0310A00B5229F21BD7
:1002D0006E29F80DF00DF10DF20DF3037B1B701C70
:1002E0008029F81F8029F00A0319F10A0319F20A7C
:1002F000031D8029F20CF10CF00CF30A0319872975
:10030000FA1FF21300308C29013077208C2902303B
:1003100014218C290430822000000800831203136A
:100320009F01C0309F042A09F000700883169F05C2
:100330001F179F1783125C08F000F00D7010F00D6E
:100340007010F00D701070089F041F149D201F1571
:100350001F1DAC290000A8291F101E08F100F00184
:1003600083161E08F0040030F10408008312031302
:10037000FB0173080319F3297208FA00F2178E3093
:10038000F302F31FF629F309F30A08307302031C82
:10039000D929F300F10D7208F100F201083073025F
:1003A000031CD929F300F10DF1017308031D03109B
:1003B000E12973080319E1290310F20CF10CF30B86
:1003C000DC297B1B711CEB29031CEB29F10A0319A7
:1003D000F20AF21B022AFA1F052AF209F109F10AB0
:1003E0000319F20A052AF201F101052A7B14FB1F09
:1003F000082AF201FA1F082AFF30F200F100FA0D74
:10040000F20C082A0130FC000A2A0030FC000A2AFB
:10041000FF30FC00FC0803190E2A20217108F000AF
:100420007208F100080083120313E101E2015C0885
:10043000E3005D08E40080305D06F000803070026B
:10044000031D242A00305C020318322A0130E10027
:100450000030E2005C08003CE3005D08031C013E44
:10046000E401E4026308E5006408E6005E08E700D2
:10047000A5200630DF000030E0006008003C031DCE
:10048000432A5F08003C03185E2A5F085E07F200FB
:1004900001305F02F0000030031C013E6002F100F9
:1004A00070085E0784000008F0007208840070087D
:1004B00080000130DF02031CE0033D2A5E08840057
:1004C000203080006108620403197C2ADF01E0010A
:1004D0005F085E0784000008203A031D732ADF0AC4
:1004E0000319E00A682A0130DF02031CE0035F08F9
:1004F0005E0784002D3080000800831603138712E6
:10050000071207108710071187118312871207122D
:1005100087110711871007100A200A200A20871464
:1005200007148716172087120A20871617208712AC
:100530000A208716172087120A200710871617200F
:1005400087120A20871617208712871087158716AB
:10055000172087120A208711071487161720871281
:1005600007108716172087120A2087161720871270
:1005700007148716172087120A20071087161720DE
:1005800087128715071587140714871617208712F7
:100590000A205B140800DD2A803083120313DC007C
:1005A000F02AC030DC00F02A9430DC00F02AD4308D
:1005B000DC00F02A8030DC00F02A831203135C0890
:1005C000013A0319CC2A5C08023A0319D12A5C08C3
:1005D000033A0319D42A5C08043A0319D72ADA2A01
:1005E0005D03F0005C08F0077008DC007008EA00AA
:1005F00037205B10DF015F085E07840000080319E5
:10060000092B5F085E0784000008E5008E20DF0AE2
:10061000FB2A5B140800831203137008F8007108AA
:10062000F000F101F201F301FB01FC019630F3004F
:10063000FA017008F1007808F000F801F201E520F5
:10064000080096208A110A128000840AC10A031940
:10065000C20AF003031D212B0800E22383160313B3
:100660008901831289017D220130EA0037200C3094
:10067000EA0037200130DC000130DD002130DE00EF
:10068000CB22DC018E2170088312C5007108C600E0
:100690000B230030F4000030F5000030F6007E300F
:1006A000F7002D21B6217008C3007108C400803006
:1006B000F200803071067202031D602B70080F3C3F
:1006C000031C892B4308DC004408DD004730DE00B2
:1006D00013220130DC000A30DD004730DE00CB227F
:1006E0000230DC000230DD003730DE00CB22023089
:1006F00089000630FB001330FC00AD30FD00FD0B1F
:100700007F2BFC0B7F2BFB0B7F2B00000000890154
:10071000BA2B8030F000803044067002031D922B0B
:1007200043080F3C0318BA2B4308DC004408DD00E3
:100730004730DE0013220130DC000A30DD00473094
:10074000DE00CB220230DC000230DD002B30DE0088
:10075000CB22023089000630FB001330FC00AD30A4
:10076000FD00FD0BB12BFC0BB12BFB0BB12B0000E3
:1007700000008901332BBB2BFF3FFF3FFF3FFF3FB3
:10078000FF3F543465346D34703428344334293495
:100790003A3400340F3443344C3449344D3441340A
:1007A000543449345334453455345234003443348A
:1007B0004834413455344634463441344734453462
:1007C0000034FF3F21308400203083120313F000F7
:1007D000C130C1000330C20021230800FF3FFF3FAA
:1007E000FF3FFF3FFF3FFF3FFF3FFF3FFF3FFF3F19
:1007F000FF3FFF3FFF3FFF3FFF3FFF3FFF3FFF3F09
:10080000FF3FFF3FFF3FFF3FFF3FFF3FFF3FFF3FF8
:10081000FF3FFF3FFF3FFF3FFF3FFF3FFF3FFF3FE8
:04400E007A3FFF3FB7
:00000001FF
