:020000000329D2
:0E000600213083120313FD00FD0B07280800B4
:100014000F3083120313FC004730FD00FD0B102842
:0A002400FC0B10280000000008008B
:06002E00000000000800C4
:1000340083120313B21B2028871121288715321B32
:100044002528071126280715B21A2A2887102B28D5
:100054008714321A2F280710302807142C18342834
:10006400071635280712871617208712B2193C285D
:1000740087113D2887153219412807114228071591
:10008400B218462887104728871432184B280710BF
:100094004C2807142C1850280716512807128716C5
:1000A400172087122C1C58280A20592803200800DE
:0E00B400831203132B088A002A08820008001A
:1000C200831203132C103108B2001A202C140800DA
:1000D200831603138712071207108710071187115F
:1000E20083128712071287110711871007100A203F
:1000F2000A200A20871407148716172087120A205D
:100102008716172087120A208716172087120A20BF
:1001120007108716172087120A20871617208712C2
:10012200871087158716172087120A208711071450
:1001320087161720871207108716172087120A20A2
:1001420087161720871207148716172087120A208E
:1001520007108716172087128715071587140714AB
:0C0162008716172087120A202C140800B2
:10016E00C928803083120313AD00DC28C030AD00E7
:10017E00DC289430AD00DC28D430AD00DC28803093
:10018E00AD00DC28831203132D08013A0319B82899
:10019E002D08023A0319BD282D08033A0319C02869
:1001AE002D08043A0319C328C6282E03F0002D0883
:1001BE00F0077008AD007008B2001A202C10B001C4
:1001CE0030082F07840000080319F52830082F0780
:1001DE0084000008B1006120B00AE7282C14080042
:1001EE005A208A110A128000840AAA0A0319AB0A3D
:0801FE00F003031DF7280800BF
:10020600423083120313A0006930A1006530A200BA
:100216006E30A3007630A4006530A5006E30A600CF
:100226007530A7006530A800A90169200130B20029
:100236001A200C30B2001A200130AD000430AE0096
:080246002030AF00B72026298B
:02400E004A2F37
:00000001FF
